:020000040800F2
:1000000000000120A50A0008A1090008A9090008AC
:10001000B1090008B9090008C10900080000000082
:10002000000000000000000000000000C9090008F6
:10003000D709000800000000E5090008F3090008DE
:10004000F50A0008F50A0008F50A0008F50A000894
:10005000F50A0008F50A0008F50A0008F50A000884
:10006000F50A0008F50A0008F50A0008F50A000874
:10007000F50A0008F50A0008F50A0008F50A000864
:10008000F50A0008F50A0008F50A0008000000005B
:10009000000000000000000000000000F50A000859
:1000A000F50A0008F50A0008F50A0008F50A000834
:1000B000F50A0008F50A0008F50A0008F50A000824
:1000C000F50A0008F50A0008F50A0008F50A000814
:1000D000F50A0008010A0008F50A000800000000FF
:1000E000F50A0008F50A0008F50A000800000000FB
:1000F000000000000000000000000000F50A0008F9
:1001000000000000F50A0008F50A0008F50A0008DA
:1001100000000000000000000000000000000000DF
:10012000F50A0008F50A0008F50A0008F50A0008B3
:10013000F50A0008000000000000000000000000B8
:10014000000000000000000000000000F50A0008A8
:10015000F50A0008F50A0008F50A0008F50A000883
:10016000F50A0008F50A0008000000000000000081
:10017000000000000000000000000000000000007F
:1001800000000000F50A0008000000000000000068
:04019000F50A000864
:1001A00010B5054C237833B9044B13B10448AFF3B1
:1001B00000800123237010BD5C00002000000000BF
:1001C0008839000808B5034B1BB103490348AFF356
:1001D000008008BD00000000600000208839000891
:1001E000034613F8012B002AFBD1181A0138704777
:1001F00001F0FF01102A2BDB10F0070F08D010F8D8
:10020000013B013A8B422DD010F0070F42B3F6D1DB
:10021000F0B441EA012141EA014122F007047FF0F4
:1002200000070023F0E80256083C85EA010586EA4B
:10023000010685FA47F5A3FA87F586FA47F6A5FA87
:1002400087F68EB9EED1F0BC01F0FF0102F0070293
:1002500032B110F8013B013A83EA010313B1F8D13E
:100260000020704701387047002D06BF354603381F
:10027000073815F0010F07D1013015F4807F02BF58
:10028000013015F4C03F0130F0BC0138704700BFA9
:1002900053B94AB9002908BF00281CBF4FF0FF31ED
:1002A0004FF0FF3000F088B9ADF1080C6DE904CED5
:1002B00000F006F8DDF804E0DDE9022304B0704741
:1002C0002DE9F047089D8E4604468846002B4AD10A
:1002D0008A42174662D9B2FA82F64EB1C6F12003BD
:1002E00001FA06F820FA03F3B74043EA0808B440DD
:1002F0004FEA174E1FFA87FCB8FBFEF1230C0EFBEA
:10030000118843EA084301FB0CF29A4209D9FB1811
:1003100001F1FF3080F0EA809A4240F2E780023932
:100320003B449A1AA3B2B2FBFEF00EFB102243EA42
:10033000024300FB0CFC9C4509D9FB1800F1FF327D
:1003400080F0D6809C4540F2D3803B44023840EA9E
:100350000140A3EB0C0300211DB1F3400022C5E9CD
:100360000032BDE8F0878B4205D90DB1C5E9000127
:1003700000210846F5E7B3FA83F1002946D1734519
:1003800002D3824200F20581841A6EEB030201203F
:100390009046002DE5D0C5E90048E2E7002A00F0CC
:1003A0009080B2FA82F6002E40F0A4808A1A030CE4
:1003B0004FEA174E80B2BCB20121B2FBFEFC0EFB2D
:1003C0001C2243EA024304FB0CF29A4207D9FB18B1
:1003D0000CF1FF3802D29A4200F2E080C4469B1A28
:1003E000B3FBFEF20EFB123340EA034302FB04F4BC
:1003F0009C4207D9FB1802F1FF3002D29C4200F266
:10040000CA8002461B1B42EA0C40A5E7C1F1200648
:100410008B4022FA06F71F430EFA01F420FA06F386
:100420002EFA06FE4FEA1749234300FA01F81FFA95
:1004300087FCBEFBF9F01C0C09FB10EE44EA0E44ED
:1004400000FB0CFEA64502FA01F209D93C1900F1A5
:10045000FF3A80F09C80A64540F2998002383C44E7
:10046000A4EB0E041FFA83FEB4FBF9F309FB13445B
:100470004EEA044403FB0CFCA44508D93C1903F1E3
:10048000FF3E80F08280A4457FD9023B3C4443EA92
:100490000040A4EB0C04A0FB02EC64457346E1466B
:1004A00062D35FD05DB1B8EB030264EB090404FAD8
:1004B00006F622FA01F31E43CC40C5E90064002190
:1004C0004FE7B1FBF2FC010C41EA0E4180B240EA79
:1004D00001423B4638463C46B846BE462026B1FB64
:1004E000F7F1A2EB080241EA0C4166E7014618E782
:1004F00010462CE7C6F120022EFA02F3B740B140B5
:1005000020FA02F24FEA174E0A43B3FBFEF8BCB2E0
:100510000EFB1833110C41EA034108FB04F9B0400B
:1005200089454FEA104380B23ED9791808F1FF3C63
:1005300001D289451FD8A1EB0901B1FBFEF909FBE6
:1005400004F80EFB191192B242EA0142424529D247
:10055000BA1809F1FF31C4D24245C2D2A9F1020151
:100560003A44BEE7F0459DD2BEEB02036CEB070CAC
:100570000138E14696E7A7EB09094944A8F1020CC6
:10058000B1FBFEF909FB04F8DBE773467FE7504651
:1005900066E70846FDE63B44023A33E7ACF1020C5D
:1005A0003B441CE749469CE7A1EB0901C446B1FB6B
:1005B000FEF909FB04F8C4E7704700BF80B582B0BC
:1005C00000AF78607B681B68044A934202D10448FC
:1005D00000F040FB00BF0837BD4680BD0010014061
:1005E0000801002080B500AF00F07EFC00F016F896
:1005F00000F0D2F800F07CF800F0A4F8044A0549B5
:10060000054800F0D5FA044800F062FBFBE700BFA4
:10061000C0000020780000200801002080B594B0C0
:1006200000AF07F1200330220021184602F018FD28
:1006300007F10C0300221A605A609A60DA601A61AE
:100640000023BB60284B1B6C274A43F08053136484
:10065000254B1B6C03F08053BB60BB6800237B60A1
:10066000224B1B6823F44043204A43F400431360A9
:100670001E4B1B6803F440437B607B6801233B6295
:100680004FF480337B620223BB634FF48003FB6330
:1006900019233B64A8237B640223BB640423FB640B
:1006A00007F12003184600F0F7FF0346002B01D0A6
:1006B00000F0C4F80F23FB6002233B6100237B6141
:1006C0004FF48053BB610023FB6107F10C0302214F
:1006D000184601F059FA0346002B01D000F0AEF89D
:1006E00000BF5037BD4680BD00380240007000405A
:1006F00080B500AF114B124A1A60104B4FF4E13233
:100700005A600E4B00229A600C4B0022DA600B4BB1
:1007100000221A61094B0C225A61084B00229A618F
:10072000064B0022DA61054801F00EFC0346002B5F
:1007300001D000F083F800BF80BD00BF780000202A
:100740000010014080B500AF114B124A1A60104BE7
:100750004FF4E1325A600E4B00229A600C4B00229B
:10076000DA600B4B00221A61094B0C225A61084BCC
:1007700000229A61064B0022DA61054801F0E4FB91
:100780000346002B01D000F059F800BF80BD00BF28
:10079000C00000200044004080B588B000AF07F1E1
:1007A0000C0300221A605A609A60DA601A61002312
:1007B000BB60204B1B6B1F4A43F0040313631D4BAC
:1007C0001B6B03F00403BB60BB6800237B60194B09
:1007D0001B6B184A43F080031363164B1B6B03F02B
:1007E00080037B607B6800233B60124B1B6B114ACC
:1007F00043F0010313630F4B1B6B03F001033B60DA
:100800003B6800224FF400510B4800F02BFF4FF4DF
:100810000053FB6001233B6102237B610023BB612A
:1008200007F10C031946044800F098FD00BF20377B
:10083000BD4680BD003802400008024080B400AFD1
:1008400072B600BF00BFFDE780B483B000AF0023E5
:100850007B60104B5B6C0F4A43F4804353640D4B39
:100860005B6C03F480437B607B6800233B60094B37
:100870001B6C084A43F080531364064B1B6C03F057
:1008800080533B603B6800BF0C37BD465DF8047B7E
:10089000704700BF0038024080B58CB000AF786070
:1008A00007F11C0300221A605A609A60DA601A612C
:1008B0007B681B68364A934235D10023BB61354BB8
:1008C0005B6C344A43F010035364324B5B6C03F0AF
:1008D0001003BB61BB6900237B612E4B1B6B2D4A50
:1008E00043F0010313632B4B1B6B03F001037B618C
:1008F0007B694FF4C063FB6102233B6200237B6290
:100900000323BB620723FB6207F11C03194622483D
:1009100000F024FD00220021252000F056FC2520B7
:1009200000F06FFC30E07B681B681C4A93422BD1BF
:1009300000233B61174B1B6C164A43F400331364CE
:10094000144B1B6C03F400333B613B690023FB60D9
:10095000104B1B6B0F4A43F0010313630D4B1B6BD2
:1009600003F00103FB60FB680C23FB6102233B6285
:1009700000237B620323BB620723FB6207F11C0396
:100980001946054800F0EAFC00BF3037BD4680BD7F
:1009900000100140003802400000024000440040C6
:1009A00080B400AF00BFFDE780B400AF00BFFDE73B
:1009B00080B400AF00BFFDE780B400AF00BFFDE72B
:1009C00080B400AF00BFFDE780B400AF00BFBD46FC
:1009D0005DF8047B704780B400AF00BFBD465DF892
:1009E000047B704780B400AF00BFBD465DF8047B58
:1009F000704780B500AF00F0C9FA00BF80BD0000AD
:100A000080B500AF024801F09FFB00BF80BD00BF72
:100A10007800002080B586B000AF7860144A154B8E
:100A2000D31A7B617B693B61134B1B68002B02D19E
:100A3000114B124A1A60104B1A687B6813443A69CA
:100A40009A4207D202F02AFB03460C221A604FF0AA
:100A5000FF3309E0084B1B68FB60074B1A687B6893
:100A60001344054A1360FB6818461837BD4680BD1D
:100A70000000012000040000F801002048030020CD
:100A800080B400AF064BD3F88830054A43F47003B6
:100A9000C2F8883000BFBD465DF8047B704700BFD8
:100AA00000ED00E0DFF834D0FFF7EAFF0C480D4915
:100AB0000D4A002302E0D458C4500433C4188C42B9
:100AC000F9D30A4A0A4C002301E013600432A2421F
:100AD000FBD302F0E9FAFFF785FD70470000012023
:100AE000000000205C000020C03A00085C000020EC
:100AF00048030020FEE70000F0B583B000AF786047
:100B000039607B6803F164007B68B3F8CA3019462A
:100B10003B680E4A02F06EFA7B68D3F8E0407B68CF
:100B2000D3F8D8507B6803F164067B6864331846B9
:100B3000FFF756FB03469AB24FF47A7331462846C4
:100B4000A04700BF0C37BD46F0BD00BFA03900086C
:100B5000B0B582B000AF786039607B68D3F8E04010
:100B60007B68D3F8DC503868FFF73AFB03469AB24B
:100B70004FF47A7339682846A04700BF0837BD464E
:100B8000B0BD90B583B000AF78607C687B681846D4
:100B9000FFF726FB03461A460021204602F060FAC2
:100BA0007B68002283F8CD2000BF0C37BD4690BD86
:100BB00080B584B000AFF860B9607A60FB68BA684D
:100BC000C3F8D820FB687A68C3F8DC20FB681D4AAC
:100BD000C3F8E020FB681C4AC3F8E420FB681B4A0A
:100BE000C3F8E820FB681A4AC3F8EC20FB686422CB
:100BF000A3F8C820FB686422A3F8CA20FB6800227F
:100C000083F8CD20FB68002283F8CE20FB68002209
:100C100083F8D420FB68D3F8E83098470246FB6895
:100C2000C3F8D020FB68D3F8E430FA68D2F8D800D3
:100C3000FA6802F1CC010122984700BF1037BD4687
:100C400080BD00BF790E00089F0E0008C30E00088B
:100C5000D10E000880B582B000AF78607B6893F851
:100C6000CD30622B1ED87B6893F8CD305A1CD1B2A0
:100C70007A6882F8CD101A467B6893F8CC107B68AE
:100C800099547B6893F8CC300A2B0FD17B6893F88A
:100C9000CD301A467B68002199547B68012283F885
:100CA000CE2003E009497868FFF752FF7B68D3F84C
:100CB000E4307A68D2F8D8007A6802F1CC010122D7
:100CC000984700BF0837BD4680BD00BFA83900085F
:100CD00080B582B000AF78607B68D3F8E830984781
:100CE00002467B68D3F8D030D31AB3F57A7F2DD97A
:100CF0007B6893F8D430042B1FD801A252F823F05C
:100D0000150D00083B0D0008270D0008310D0008E7
:100D10003B0D00084D497868FFF7EEFE7B68012225
:100D200083F8D4200AE04A497868FFF7E5FE05E039
:100D300048497868FFF7E0FE00E000BF7B68D3F821
:100D4000E830984702467B68C3F8D0207B6893F868
:100D5000CE30002B76D07B68002283F8CE207B68D3
:100D60003D49184602F084F90346002B26D07B68E3
:100D700093F8D430032B18D0032B5DDC012B02D069
:100D8000022B09D058E07B68022283F8D420334933
:100D90007868FFF7DDFE52E07B68032283F8D420F9
:100DA0002F497868FFF7D4FE49E07B68042283F876
:100DB000D4202C497868FFF7CBFE40E07B682A49B5
:100DC000184602F055F90346002B38D07B6893F89B
:100DD000D430032B22D0032B30DC012B02D0022B8A
:100DE0000ED02BE021497868FFF7B2FE7B681946E8
:100DF0007868FFF7ADFE7B68062283F8D4201EE0FA
:100E00001B497868FFF7A4FE7B6819467868FFF7EE
:100E10009FFE7B68062283F8D42010E0154978688D
:100E2000FFF796FE7B6819467868FFF791FE7B68AE
:100E3000062283F8D42002E000BF00E000BF7868FB
:100E4000FFF79FFE00BF0837BD4680BDC0390008D0
:100E5000C8390008D4390008E0390008E43900082E
:100E6000F4390008043A0008183A0008203A00084B
:100E7000383A0008503A000880B584B000AFF860F6
:100E8000B9603B601346FB80FA883B68B968F86834
:100E900001F0AAF8034618461037BD4680BD80B55C
:100EA00084B000AFF860B9601346FB80FB881A4637
:100EB000B968F86801F023F9034618461037BD46B3
:100EC00080BD80B500AF00F075F80346184680BDC0
:100ED00080B582B000AF7860786800F077F800BF26
:100EE0000837BD4680BD000080B500AF0E4B1B68C3
:100EF0000D4A43F4007313600B4B1B680A4A43F41A
:100F000080631360084B1B68074A43F480731360C7
:100F1000032000F04FF90F2000F008F8FFF794FCD1
:100F20000023184680BD00BF003C024080B582B05F
:100F300000AF7860124B1A68124B1B7819464FF4B9
:100F40007A73B3FBF1F3B2FBF3F3184600F067F9E1
:100F50000346002B01D001230EE07B680F2B0AD83B
:100F6000002279684FF0FF3000F02FF9064A7B68C5
:100F70001360002300E0012318460837BD4680BDFA
:100F800000000020080000200400002080B400AF12
:100F9000064B1B781A46064B1B681344044A136021
:100FA00000BFBD465DF8047B704700BF080000200D
:100FB000FC01002080B400AF034B1B681846BD46FF
:100FC0005DF8047B704700BFFC01002080B584B051
:100FD00000AF7860FFF7EEFFB8607B68FB60FB68EE
:100FE000B3F1FF3F05D00A4B1B781A46FB68134448
:100FF000FB6000BFFFF7DEFF0246BB68D31AFA684A
:101000009A42F7D800BF00BF1037BD4680BD00BF71
:101010000800002080B485B000AF78607B6803F0E2
:101020000703FB600C4BDB68BB60BA684FF6FF033D
:101030001340BB60FB681A02BB68134343F0BF63F5
:1010400043F40033BB60044ABB68D36000BF14376D
:10105000BD465DF8047B704700ED00E080B400AF52
:10106000044BDB681B0A03F007031846BD465DF816
:10107000047B704700ED00E080B483B000AF03460E
:10108000FB7197F90730002B0BDBFB7903F01F0294
:10109000074997F907305B09012000FA02F241F88D
:1010A000232000BF0C37BD465DF8047B704700BFAE
:1010B00000E100E080B483B000AF03463960FB710B
:1010C00097F90730002B0ADB3B68DAB20C4997F935
:1010D00007301201D2B20B4483F800230AE03B68C8
:1010E000DAB20849FB7903F00F03043B1201D2B2D4
:1010F0000B441A7600BF0C37BD465DF8047B704781
:1011000000E100E000ED00E080B489B000AFF860DD
:10111000B9607A60FB6803F00703FB61FB69C3F108
:101120000703042B28BF0423BB61FB690433062B90
:1011300002D9FB69033B00E000237B614FF0FF32E3
:10114000BB6902FA03F3DA43BB681A407B699A4031
:101150004FF0FF317B6901FA03F3D9437B680B4001
:10116000134318462437BD465DF8047B70470000E2
:1011700080B582B000AF78607B68013BB3F1807FBF
:1011800001D301230FE00A4A7B68013B53600F2122
:101190004FF0FF30FFF78EFF054B00229A60044BA3
:1011A00007221A60002318460837BD4680BD00BFDD
:1011B00010E000E080B582B000AF78607868FFF79B
:1011C00029FF00BF0837BD4680BD80B586B000AF9F
:1011D0000346B9607A60FB7300237B61FFF73EFF33
:1011E00078617A68B9687869FFF78EFF024697F9E7
:1011F0000F3011461846FFF75DFF00BF1837BD4698
:1012000080BD80B582B000AF0346FB7197F907300F
:101210001846FFF731FF00BF0837BD4680BD80B5D7
:1012200082B000AF78607868FFF7A2FF03461846E7
:101230000837BD4680BD80B584B000AF78607B685C
:101240009B6DFB60FFF7B6FEB8607B6893F83530A6
:10125000DBB2022B08D07B6880225A657B680022B3
:1012600083F83420012352E07B681B681A687B688E
:101270001B6822F016021A607B681B685A697B683B
:101280001B6822F080025A617B681B6C002B03D123
:101290007B689B6C002B07D07B681B681A687B6897
:1012A0001B6822F008021A607B681B681A687B685A
:1012B0001B6822F001021A6013E0FFF77BFE024672
:1012C000BB68D31A052B0CD97B6820225A657B6832
:1012D000032283F835207B68002283F8342003231F
:1012E00015E07B681B681B6803F00103002BE4D149
:1012F0007B68DB6D3F229A40FB689A607B68012225
:1013000083F835207B68002283F8342000231846B8
:101310001037BD4680BD80B483B000AF78607B6875
:1013200093F83530DBB2022B04D07B6880225A65FB
:1013300001230CE07B68052283F835207B681B685D
:101340001A687B681B6822F001021A6000231846A5
:101350000C37BD465DF8047B7047000080B489B04F
:1013600000AF7860396000237B6100233B6100237C
:10137000BB610023FB6159E10122FB6902FA03F31F
:101380007B613B681B687A6913403B613A697B6902
:101390009A4240F048813B685B6803F00303012BED
:1013A00005D03B685B6803F00303022B30D17B68F8
:1013B0009B68BB61FB695B00032202FA03F3DB431A
:1013C000BA691340BB613B68DA68FB695B0002FAEB
:1013D00003F3BA691343BB617B68BA699A607B689F
:1013E0005B68BB610122FB6902FA03F3DB43BA6964
:1013F0001340BB613B685B681B0903F00102FB699A
:1014000002FA03F3BA691343BB617B68BA695A6095
:101410003B685B6803F00303032B17D07B68DB6832
:10142000BB61FB695B00032202FA03F3DB43BA6989
:101430001340BB613B689A68FB695B0002FA03F3E7
:10144000BA691343BB617B68BA69DA603B685B6861
:1014500003F00303022B23D1FB69DA087B6808320F
:1014600053F82230BB61FB6903F007039B000F2296
:1014700002FA03F3DB43BA691340BB613B681A69A4
:10148000FB6903F007039B0002FA03F3BA691343F5
:10149000BB61FB69DA087B680832B96943F822103E
:1014A0007B681B68BB61FB695B00032202FA03F3E4
:1014B000DB43BA691340BB613B685B6803F003021E
:1014C000FB695B0002FA03F3BA691343BB617B68F3
:1014D000BA691A603B685B6803F44033002B00F084
:1014E000A2800023FB60574B5B6C564A43F4804359
:1014F0005364544B5B6C03F48043FB60FB68524ABB
:10150000FB699B08023352F82330BB61FB6903F08F
:1015100003039B000F2202FA03F3DB43BA69134073
:10152000BB617B68494A934219D07B68484A934221
:1015300013D07B68474A93420DD07B68464A93425A
:1015400007D07B68454A934201D1042308E0072372
:1015500006E0032304E0022302E0012300E000236D
:10156000FA6902F0030292009340BA691343BB6127
:101570003549FB699B080233BA6941F82320384B8F
:101580009B68BB613B69DB43BA691340BB613B6845
:101590005B6803F48013002B03D0BA693B691343E3
:1015A000BB612F4ABB6993602D4BDB68BB613B6914
:1015B000DB43BA691340BB613B685B6803F400130B
:1015C000002B03D0BA693B691343BB61244ABB6952
:1015D000D360234B5B68BB613B69DB43BA69134053
:1015E000BB613B685B6803F40033002B03D0BA692E
:1015F0003B691343BB611A4ABB695360184B1B68B4
:10160000BB613B69DB43BA691340BB613B685B6804
:1016100003F48033002B03D0BA693B691343BB61E9
:101620000F4ABB691360FB690133FB61FB690F2B38
:101630007FF6A2AE00BF00BF2437BD465DF8047B35
:10164000704700BF003802400038014000000240EF
:101650000004024000080240000C0240001002405A
:10166000003C014080B483B000AF78600B467B80C3
:1016700013467B707B78002B03D07A887B689A6155
:1016800003E07B881A047B689A6100BF0C37BD4673
:101690005DF8047B7047000080B586B000AF7860CD
:1016A0007B68002B01D1012367E27B681B6803F094
:1016B0000103002B75D0884B9B6803F00C03042BAF
:1016C0000CD0854B9B6803F00C03082B12D1824B86
:1016D0005B6803F48003B3F5800F0BD17E4B1B686E
:1016E00003F40033002B5BD07B685B68002B57D181
:1016F000012342E27B685B68B3F5803F06D1764BFD
:101700001B68754A43F4803313601DE07B685B6897
:10171000B3F5A02F0CD1704B1B686F4A43F48023A4
:1017200013606D4B1B686C4A43F4803313600BE00D
:10173000694B1B68684A23F480331360664B1B684F
:10174000654A23F4802313607B685B68002B13D009
:10175000FFF730FC386108E0FFF72CFC02463B69DC
:10176000D31A642B01D9032307E25B4B1B6803F4F4
:101770000033002BF0D014E0FFF71CFC386108E0C8
:10178000FFF718FC02463B69D31A642B01D90323E7
:10179000F3E1514B1B6803F40033002BF0D100E060
:1017A00000BF7B681B6803F00203002B63D04A4B29
:1017B0009B6803F00C03002B0BD0474B9B6803F096
:1017C0000C03082B1CD1444B5B6803F48003002BF3
:1017D00016D1414B1B6803F00203002B05D07B6838
:1017E000DB68012B01D00123C7E13B4B1B6823F0D1
:1017F000F8027B681B69DB00374913430B603AE052
:101800007B68DB68002B20D0344B01221A60FFF785
:10181000D1FB386108E0FFF7CDFB02463B69D31AE4
:10182000022B01D90323A8E12B4B1B6803F0020311
:10183000002BF0D0284B1B6823F0F8027B681B6953
:10184000DB00254913430B6015E0244B00221A608E
:10185000FFF7B0FB386108E0FFF7ACFB02463B69DD
:10186000D31A022B01D9032387E11B4B1B6803F01A
:101870000203002BF0D17B681B6803F00803002BE8
:1018800036D07B685B69002B16D0154B01221A609D
:10189000FFF790FB386108E0FFF78CFB02463B69DD
:1018A000D31A022B01D9032367E10B4B5B6F03F0C3
:1018B0000203002BF0D01BE0094B00221A60FFF757
:1018C00079FB38610EE0FFF775FB02463B69D31ADE
:1018D000022B07D9032350E10038024000004742A1
:1018E000800E4742884B5B6F03F00203002BEAD166
:1018F0007B681B6803F00403002B00F09780002333
:10190000FB75814B1B6C03F08053002B0FD1002320
:10191000BB607D4B1B6C7C4A43F0805313647A4B55
:101920001B6C03F08053BB60BB680123FB75774BD6
:101930001B6803F48073002B18D1744B1B68734A27
:1019400043F480731360FFF735FB386108E0FFF75D
:1019500031FB02463B69D31A022B01D903230CE168
:101960006A4B1B6803F48073002BF0D07B689B6884
:10197000012B06D1644B1B6F634A43F001031367CD
:101980001CE07B689B68052B0CD15F4B1B6F5E4A8C
:1019900043F0040313675C4B1B6F5B4A43F0010386
:1019A00013670BE0584B1B6F574A23F00103136773
:1019B000554B1B6F544A23F0040313677B689B68E5
:1019C000002B15D0FFF7F6FA38610AE0FFF7F2FABC
:1019D00002463B69D31A41F28832934201D903236C
:1019E000CBE0494B1B6F03F00203002BEED014E059
:1019F000FFF7E0FA38610AE0FFF7DCFA02463B69DC
:101A0000D31A41F28832934201D90323B5E03E4B09
:101A10001B6F03F00203002BEED1FB7D012B05D1E0
:101A2000394B1B6C384A23F0805313647B689B69E5
:101A3000002B00F0A180344B9B6803F00C03082BB3
:101A40005CD07B689B69022B41D1314B00221A602C
:101A5000FFF7B0FA386108E0FFF7ACFA02463B69DD
:101A6000D31A022B01D9032387E0274B1B6803F00D
:101A70000073002BF0D17B68DA697B681B6A1A431C
:101A80007B685B6A9B011A437B689B6A5B08013B2E
:101A90001B041A437B68DB6A1B061B4913434B601C
:101AA0001B4B01221A60FFF785FA386108E0FFF747
:101AB00081FA02463B69D31A022B01D903235CE069
:101AC000114B1B6803F00073002BF0D054E0104B57
:101AD00000221A60FFF76EFA386108E0FFF76AFA31
:101AE00002463B69D31A022B01D9032345E0064B7A
:101AF0001B6803F00073002BF0D13DE07B689B690D
:101B0000012B07D1012338E000380240007000406B
:101B1000600047421B4B5B68FB607B689B69012B45
:101B200028D0FB6803F480027B68DB699A4221D1EC
:101B3000FB6803F03F027B681B6A9A421AD1FA687D
:101B400047F6C07313407A68526A9201934211D1EA
:101B5000FB6803F440327B689B6A5B08013B1B0413
:101B60009A4207D1FB6803F070627B68DB6A1B0650
:101B70009A4201D0012300E0002318461837BD46E1
:101B800080BD00BF0038024080B584B000AF7860EF
:101B900039607B68002B01D10123CCE0684B1B68C6
:101BA00003F007033A689A420CD9654B3A68D2B2FF
:101BB0001A70634B1B6803F007033A689A4201D01E
:101BC0000123B8E07B681B6803F00203002B20D0E0
:101BD0007B681B6803F00403002B05D0594B9B68FE
:101BE000584A43F4E05393607B681B6803F0080392
:101BF000002B05D0534B9B68524A43F460439360DB
:101C0000504B9B6823F0F0027B689B684D4913435F
:101C10008B607B681B6803F00103002B44D07B685A
:101C20005B68012B07D1474B1B6803F40033002B83
:101C300019D101237FE07B685B68022B03D07B68AE
:101C40005B68032B07D13F4B1B6803F00073002B2D
:101C500009D101236FE03B4B1B6803F00203002B0B
:101C600001D1012367E0374B9B6823F003027B68B7
:101C70005B68344913438B60FFF79CF9F8600AE016
:101C8000FFF798F90246FB68D31A41F28832934273
:101C900001D903234FE02B4B9B6803F00C027B68B8
:101CA0005B689B009A42EBD1254B1B6803F007034E
:101CB0003A689A420CD2224B3A68D2B21A70204B40
:101CC0001B6803F007033A689A4201D0012332E00F
:101CD0007B681B6803F00403002B08D0194B9B683A
:101CE00023F4E0527B68DB68164913438B607B6802
:101CF0001B6803F00803002B09D0124B9B6823F4E8
:101D000060427B681B69DB000E4913438B6000F067
:101D100021F802460B4B9B681B0903F00F030A498D
:101D2000CB5C22FA03F3094A1360094B1B6818467F
:101D3000FFF7FCF8002318461037BD4680BD00BFF2
:101D4000003C024000380240643A000800000020D5
:101D5000040000202DE9B04F90B000AF00237B635A
:101D60000023FB6300233B630023BB63594B9B6849
:101D700003F00C03082B0DD0082B00F2A180002BE0
:101D800002D0042B03D09BE0534BBB639BE0534B2F
:101D9000BB6398E04F4B5B6803F03F037B634D4BA5
:101DA0005B6803F48003002B28D04A4B5B689B09D7
:101DB00000223B627A623B6AC3F308000021474B72
:101DC00003FB01F2002300FB03F31344434AA0FB8F
:101DD0000212FA620A46BA62FA6A1344FB627B6B29
:101DE0000022BB61FA61D7E90623D7E90A01FEF7B1
:101DF0004FFA02460B461346FB6353E0354B5B68D4
:101E00009B0900223B617A613B69C3F3080A4FF0EA
:101E1000000B52465B464FF000004FF000015901A5
:101E200041EAD261500102460B46B2EB0A0863EB6D
:101E30000B094FF000024FF000034FEA891343EA09
:101E400098634FEA8812B2EB080463EB09054FF080
:101E500000024FF00003EB0043EA5473E200144623
:101E60001D4614EB0A033B6045EB0B037B604FF010
:101E700000024FF00003D7E9004529468B022146B6
:101E800043EA915321468A02104619467B6B002291
:101E9000BB60FA60D7E90223FEF7FAF902460B4667
:101EA0001346FB630B4B5B681B0C03F0030301330E
:101EB0005B003B63FA6B3B6BB2FBF3F3BB6302E08B
:101EC000054BBB6300BFBB6B18464037BD46BDE842
:101ED000B08F00BF003802400024F40040787D013C
:101EE00080B400AF034B1B681846BD465DF8047B09
:101EF000704700BF0000002080B500AFFFF7F0FF83
:101F00000246054B9B689B0A03F007030349CB5C21
:101F100022FA03F3184680BD00380240743A0008E4
:101F200080B500AFFFF7DCFF0246054B9B685B0BFB
:101F300003F007030349CB5C22FA03F3184680BD84
:101F400000380240743A000880B582B000AF786073
:101F50007B68002B01D1012342E07B6893F841307C
:101F6000DBB2002B06D17B68002283F84020786822
:101F7000FEF792FC7B68242283F841207B681B6873
:101F8000DA687B681B6822F40052DA60786800F037
:101F9000BDFD7B681B681A697B681B6822F4904250
:101FA0001A617B681B685A697B681B6822F02A02E9
:101FB0005A617B681B68DA687B681B6842F40052D0
:101FC000DA607B6800225A647B68202283F8412013
:101FD0007B68202283F842207B6800225A6300231A
:101FE00018460837BD4680BD80B58AB002AFF8609C
:101FF000B9603B601346FB8000237B61FB6893F86C
:102000004130DBB2202B75D1BB68002B02D0FB889E
:10201000002B01D101236EE0FB6800225A64FB68AB
:10202000212283F84120FEF7C5FF7861FB68FA881A
:102030009A84FB68FA88DA84FB689B68B3F5805F52
:1020400008D1FB681B69002B04D10023FB61BB682E
:10205000BB6103E0BB68FB610023BB612EE03B6812
:1020600000937B6900228021F86800F01FFB034683
:10207000002B05D0FB68202283F8412003233AE09F
:10208000FB69002B0BD1BB691B881A46FB681B68D8
:10209000C2F308025A60BB690233BB6107E0FB6907
:1020A0001A78FB681B685A60FB690133FB61FB68A7
:1020B000DB8C9BB2013B9AB2FB68DA84FB68DB8C59
:1020C0009BB2002BCBD13B6800937B69002240215F
:1020D000F86800F0EBFA0346002B05D0FB682022DD
:1020E00083F84120032306E0FB68202283F8412087
:1020F000002300E0022318462037BD4680BD80B58E
:1021000084B000AFF860B9601346FB80FB6893F8B9
:102110004230DBB2202B12D1BB68002B02D0FB88EF
:10212000002B01D101230BE0FB6800221A63FB881E
:102130001A46B968F86800F012FB034600E0022373
:1021400018461037BD4680BD80B5BAB000AF786084
:102150007B681B681B68C7F8E4307B681B68DB681A
:10216000C7F8E0307B681B685B69C7F8DC30002388
:10217000C7F8D8300023C7F8D430D7F8E43003F0DC
:102180000F03C7F8D830D7F8D830002B0FD1D7F8C5
:10219000E43003F02003002B09D0D7F8E03003F03F
:1021A0002003002B03D0786800F0F2FB5BE2D7F845
:1021B000D830002B00F0DE80D7F8DC3003F00103CC
:1021C000002B06D1D7F8E03003F49073002B00F019
:1021D000D180D7F8E43003F00103002B0BD0D7F8FF
:1021E000E03003F48073002B05D07B685B6C43F018
:1021F00001027B685A64D7F8E43003F00403002B33
:102200000BD0D7F8DC3003F00103002B05D07B683E
:102210005B6C43F002027B685A64D7F8E43003F049
:102220000203002B0BD0D7F8DC3003F00103002BA6
:1022300005D07B685B6C43F004027B685A64D7F876
:10224000E43003F00803002B11D0D7F8E03003F09E
:102250002003002B05D1D7F8DC3003F00103002B5D
:1022600005D07B685B6C43F008027B685A647B682E
:102270005B6C002B00F0F281D7F8E43003F0200310
:10228000002B08D0D7F8E03003F02003002B02D059
:10229000786800F07DFB7B681B685B6903F0400396
:1022A000402B0CBF01230023DBB2C7F8D4307B687E
:1022B0005B6C03F00803002B03D1D7F8D430002B5C
:1022C0004FD0786800F085FA7B681B685B6903F083
:1022D0004003402B41D17B681B681433C7F89C3006
:1022E000D7F89C3053E8003FC7F89830D7F89830BB
:1022F00023F04003C7F8D0307B681B681433D7F84D
:10230000D020C7F8A820C7F8A430D7F8A410D7F871
:10231000A82041E80023C7F8A030D7F8A030002B50
:10232000D9D17B68DB6B002B13D07B68DB6B7E4ADB
:102330001A657B68DB6B1846FEF7EDFF0346002B42
:1023400016D07B68DB6B1B6D7A68D26B10469847A2
:102350000EE0786800F094F90AE0786800F090F9EF
:1023600006E0786800F08CF97B6800225A6475E119
:1023700000BF73E17B681B6B012B40F04F81D7F8E6
:10238000E43003F01003002B00F04881D7F8E03070
:1023900003F01003002B00F041810023BB607B6839
:1023A0001B681B68BB607B681B685B68BB60BB68A5
:1023B0007B681B685B6903F04003402B40F0B680EC
:1023C0007B68DB6B1B685B68A7F8BE30B7F8BE3074
:1023D000002B00F045817B689B8DB7F8BE209A42A8
:1023E00080F03E817B68B7F8BE20DA857B68DB6BC6
:1023F000DB69B3F5807F00F088807B681B680C3355
:10240000C7F88830D7F8883053E8003FC7F88430E1
:10241000D7F8843023F48073C7F8B8307B681B6822
:102420000C33D7F8B820C7F89420C7F89030D7F805
:102430009010D7F8942041E80023C7F88C30D7F8E3
:102440008C30002BD9D17B681B6814337B677B6F82
:1024500053E8003F3B673B6F23F00103C7F8B430FC
:102460007B681B681433D7F8B420C7F88020FB675B
:10247000F96FD7F8802041E80023BB67BB6F002BC2
:10248000E1D17B681B6814333B663B6E53E8003F29
:10249000FB65FB6D23F04003C7F8B0307B681B6819
:1024A0001433D7F8B020FA66BB66B96EFA6E41E80D
:1024B00000237B667B6E002BE3D17B68202283F8B0
:1024C00042207B6800221A637B681B680C33FB6424
:1024D000FB6C53E8003FBB64BB6C23F01003C7F8F0
:1024E000AC307B681B680C33D7F8AC20BA657B65D1
:1024F000796DBA6D41E800233B653B6D002BE3D15C
:102500007B68DB6B1846FEF796FE7B6802225A63F7
:102510007B689A8D7B68DB8D9BB2D31A9BB2194680
:10252000786800F0B7F89BE0992800087B689A8DDE
:102530007B68DB8D9BB2D31AA7F8CE307B68DB8D2E
:102540009BB2002B00F08E80B7F8CE30002B00F04D
:1025500089807B681B680C33BB63BB6B53E8003F0F
:102560007B637B6B23F49073C7F8C8307B681B6870
:102570000C33D7F8C8207A643B64396C7A6C41E834
:102580000023FB63FB6B002BE3D17B681B681433D8
:102590007B627B6A53E8003F3B623B6A23F00103A6
:1025A000C7F8C4307B681B681433D7F8C4203A637B
:1025B000FB62F96A3A6B41E80023BB62BB6A002BFD
:1025C000E3D17B68202283F842207B6800221A63D3
:1025D0007B681B680C333B613B6953E8003FFB6041
:1025E000FB6823F01003C7F8C0307B681B680C330E
:1025F000D7F8C020FA61BB61B969FA6941E80023E4
:102600007B617B69002BE3D17B6802225A63B7F8B8
:10261000CE301946786800F03DF823E0D7F8E43072
:1026200003F08003002B09D0D7F8E03003F08003DB
:10263000002B03D0786800F043F914E0D7F8E430B9
:1026400003F04003002B0ED0D7F8E03003F0400336
:10265000002B08D0786800F083F904E000BF02E0A6
:1026600000BF00E000BFE837BD4680BD80B483B046
:1026700000AF786000BF0C37BD465DF8047B704743
:1026800080B483B000AF786000BF0C37BD465DF802
:10269000047B704780B483B000AF78600B467B80CA
:1026A00000BF0C37BD465DF8047B704780B586B02F
:1026B00000AFF860B9603B601346FB713BE03B6ADA
:1026C000B3F1FF3F37D0FEF775FC02463B68D31AE3
:1026D0003A6A9A4202D33B6A002B01D103233AE0C3
:1026E000FB681B68DB6803F00403002B23D0BB6886
:1026F000802B20D0BB68402B1DD0FB681B681B685B
:1027000003F00803082B16D100237B61FB681B68CC
:102710001B687B61FB681B685B687B617B69F86891
:1027200000F057F8FB6808225A64FB68002283F81F
:10273000402001230FE0FB681B681A68BB68134048
:10274000BA689A420CBF01230023DBB21A46FB7918
:102750009A42B4D0002318461837BD4680BD80B4D5
:1027600085B000AFF860B9601346FB80FB68BA68BB
:102770009A62FB68FA889A85FB68FA88DA85FB68B2
:1027800000225A64FB68222283F84220FB681B69FE
:10279000002B07D0FB681B68DA68FB681B6842F4F3
:1027A0008072DA60FB681B685A69FB681B6842F03C
:1027B00001025A61FB681B68DA68FB681B6842F01B
:1027C0002002DA60002318461437BD465DF8047B0A
:1027D000704780B495B000AF78607B681B680C339D
:1027E0007B637B6B53E8003F3B633B6B23F490734D
:1027F000FB647B681B680C33FA6C3A64FB63F96B0F
:102800003A6C41E80023BB63BB6B002BE5D17B68CE
:102810001B6814333B623B6A53E8003FFB61FB6972
:1028200023F00103BB647B681B681433BA6CFA6243
:10283000BB62B96AFA6A41E800237B627B6A002BBB
:10284000E5D17B681B6B012B19D17B681B680C33AE
:10285000FB60FB6853E8003FBB60BB6823F01003DC
:102860007B647B681B680C337A6CBA617B61796925
:10287000BA6941E800233B613B69002BE5D17B68E5
:10288000202283F842207B6800221A6300BF54375D
:10289000BD465DF8047B704780B584B000AF7860BA
:1028A0007B689B6BFB60FB680022DA85FB6800227B
:1028B000DA84F868FFF7E4FE00BF1037BD4680BD3C
:1028C00080B485B000AF78607B6893F84130DBB2AC
:1028D000212B3ED17B689B68B3F5805F14D17B6868
:1028E0001B69002B10D17B681B6AFB60FB681B888F
:1028F0001A467B681B68C2F308025A607B681B6A31
:102900009A1C7B681A6208E07B681B6A591C7A680B
:1029100011621A787B681B685A607B68DB8C9BB2FB
:10292000013B9BB27A681946D184002B0FD17B689A
:102930001B68DA687B681B6822F08002DA607B68BB
:102940001B68DA687B681B6842F04002DA6000238B
:1029500000E0022318461437BD465DF8047B70473B
:1029600080B582B000AF78607B681B68DA687B68EE
:102970001B6822F04002DA607B68202283F8412045
:102980007868FFF773FE002318460837BD4680BD00
:1029900080B58CB000AF78607B6893F84230DBB2D2
:1029A000222B40F0AE807B689B68B3F5805F17D127
:1029B0007B681B69002B13D10023FB627B689B6A39
:1029C000BB627B681B685B689BB2C3F308039AB267
:1029D000BB6A1A807B689B6A9A1C7B689A6226E0B5
:1029E0007B689B6AFB620023BB627B689B68B3F5D4
:1029F000805F07D07B689B68002B0AD17B681B69CE
:102A0000002B06D17B681B685B68DAB2FB6A1A7020
:102A100008E07B681B685B68DBB203F07F03DAB217
:102A2000FB6A1A707B689B6A5A1C7B689A627B6897
:102A3000DB8D9BB2013B9BB27A681946D185002B96
:102A40005DD17B681B68DA687B681B6822F0200216
:102A5000DA607B681B68DA687B681B6822F4807226
:102A6000DA607B681B685A697B681B6822F0010288
:102A70005A617B68202283F842207B6800225A63D7
:102A80007B681B6B012B35D17B6800221A637B6846
:102A90001B680C337B617B6953E8003F3B613B69FA
:102AA00023F010037B627B681B680C337A6A3A62FE
:102AB000FB61F9693A6A41E80023BB61BB69002BFD
:102AC000E5D17B681B681B6803F01003102B0AD14B
:102AD0000023FB607B681B681B68FB607B681B68CE
:102AE0005B68FB60FB687B689B8D19467868FFF725
:102AF000D1FD02E07868FDF761FD002302E00023CC
:102B000000E0022318463037BD4680BD2DE9B04FA6
:102B1000C0B000AFC7F8F400D7F8F4301B681B69E9
:102B200023F44050D7F8F430D968D7F8F4301A6855
:102B300040EA01031361D7F8F4309A68D7F8F4300B
:102B40001B691A43D7F8F4305B691A43D7F8F4309D
:102B5000DB691343C7F8F830D7F8F4301B68DB683B
:102B600023F4164121F00C01D7F8F4301A68D7F895
:102B7000F8300B43D360D7F8F4301B685B6923F45B
:102B80004070D7F8F4309969D7F8F4301A6840EA01
:102B900001035361D7F8F4301A688F4B9A4205D07D
:102BA000D7F8F4301A688D4B9A4204D1FFF7B8F980
:102BB000C7F8FC0003E0FFF79FF9C7F8FC00D7F85F
:102BC000F430DB69B3F5004F40F00C81D7F8FC30EE
:102BD0000022C7F8E830C7F8EC20D7E93A4522468A
:102BE0002B469118B9655B41FB65D7E91623214651
:102BF00012EB0108294643EB01094FF000024FF0A8
:102C000000034FEAC90343EA58734FEAC8029046EB
:102C10009946234618EB0303C7F8E0302B4649EBEF
:102C20000303C7F8E430D7F8F4305B680022C7F834
:102C3000D830C7F8DC20D7E936120B46DB183B65E5
:102C4000134642EB03037B65D7E91423D7E9380128
:102C5000FDF71EFB02460B46614BA3FB02235B09FB
:102C60001C01D7F8FC300022C7F8D030C7F8D420B8
:102C7000D7E9348942464B469118B9645B41FB64FD
:102C8000D7E91223414612EB010A494643EB010BF7
:102C90004FF000024FF000034FEACB0343EA5A73B0
:102CA0004FEACA0292469B4643461AEB0303C7F813
:102CB000C8304B464BEB0303C7F8CC30D7F8F430A1
:102CC0005B680022C7F8C030C7F8C420D7E93012CB
:102CD0000B46DB183B64134642EB03037B64D7E9E6
:102CE0001023D7E93201FDF7D3FA02460B4611460D
:102CF0003B4BA3FB01235B09642202FB03F3CB1ACA
:102D0000DB0003F13202364BA3FB02235B095B00BD
:102D100003F4F8731C44D7F8FC300022C7F8B8302D
:102D2000C7F8BC20D7E92E8942464B469118B963B3
:102D30005B41FB63D7E90E2341465118396349468D
:102D40004B417B634FF000024FF00003D7E90CAB1F
:102D50005946CB00514643EA51735146CA001046CA
:102D60001946034642469B18C7F8B0304B460A4600
:102D700042EB0303C7F8B430D7F8F4305B680022A5
:102D8000C7F8A830C7F8AC20D7E92A120B46DB18E1
:102D9000BB62134642EB0303FB62D7E90A23D7E980
:102DA0002C01FDF775FA02460B460D4BA3FB0213EF
:102DB0005B09642101FB03F3D31ADB003233084AB9
:102DC000A2FB03235B0903F00702D7F8F4301B686A
:102DD00022449A6006E100BF001001400014014047
:102DE0001F85EB51D7F8FC300022C7F8A030C7F898
:102DF000A420D7E9288942464B46911839625B41A5
:102E00007B62D7E9082341465418494643EB010544
:102E10004FF000024FF00003EB0043EA5473E2006E
:102E200014461D464346E318C7F898304B4645EB19
:102E30000303C7F89C30D7F8F4305B680022C7F86A
:102E40009030C7F894204FF000024FF00003D7E90C
:102E5000244529468B00214643EA917321468A0086
:102E6000D7E92601FDF714FA02460B46604BA3FB97
:102E700002235B091C01D7F8FC300022C7F8883018
:102E8000C7F88C20D7E9228942464B469118B96190
:102E90005B41FB61D7E90623414651183961494638
:102EA0004B417B614FF000024FF00003D7E904ABC8
:102EB0005946CB00514643EA51735146CA00104669
:102EC0001946034642469B18C7F880304B460A46CF
:102ED00042EB0303C7F88430D7F8F4305B68002274
:102EE000BB67FA674FF000024FF00003D7E91E8975
:102EF00049468B00414643EA917341468A00D7E92F
:102F00002001FDF7C5F902460B461146384BA3FBDD
:102F100001235B09642202FB03F3CB1A1B0132334A
:102F2000334AA2FB03235B0903F0F0031C44D7F8E8
:102F3000FC3000223B677A67D7E91C8942464B4642
:102F40009118B9605B41FB60D7E9022341465118F3
:102F5000396049464B417B604FF000024FF000035F
:102F6000D7E900AB5946CB00514643EA517351466D
:102F7000CA0010461946034642469B18BB664B469C
:102F80000A4642EB0303FB66D7F8F4305B68002285
:102F90003B667A664FF000024FF00003D7E91889CC
:102FA00049468B00414643EA917341468A00D7E97E
:102FB0001A01FDF76DF902460B460D4BA3FB0213F8
:102FC0005B09642101FB03F3D31A1B013233084A66
:102FD000A2FB03235B0903F00F02D7F8F4301B6850
:102FE00022449A6000BF07F58077BD46BDE8B08FE8
:102FF0001F85EB510CB430B5184B0C1E1D689DB0ED
:1030000008DA8B232B604FF0FF301DB0BDE8304055
:1030100002B070474FF40273ADF814304FF0000364
:103020001B9314BF04F1FF332346049307934FF619
:10303000FF7302900690ADF81630209A21AB02A9DA
:103040002846019300F0AAF9431CBCBF8B232B60D8
:10305000002CDAD0029B00221A70D6E70C00002068
:1030600002440346934200D1704703F8011BF9E77D
:103070000A7870B56AB970BD9A4209D10C46054606
:1030800014F8013F002BF6D015F8016F9E42F7D0DF
:1030900001300378002BEFD11846ECE7014B18689C
:1030A000704700BF0C00002070B50D4D0D4C641B27
:1030B000A4100026A64209D10B4D0C4C00F064FC74
:1030C000641BA4100026A64205D170BD55F8043B30
:1030D00098470136EEE755F8043B98470136F2E78A
:1030E000B83A0008B83A0008B83A0008BC3A0008F4
:1030F0007047704738B50546002941D051F8043C67
:103100000C1F002BB8BFE41800F0E0F81D4A13684C
:1031100033B9636014602846BDE8384000F0DCB87D
:10312000A34208D9206821188B4201BF19685B6847
:1031300009182160EDE71A465B680BB1A342FAD982
:1031400011685018A0420BD12068014450188342E6
:103150001160E0D118685B68536008441060DAE7DA
:1031600002D90C232B60D6E7206821188B4204BFBC
:1031700019685B68636004BF091821605460CAE77E
:1031800038BD00BF4403002070B50F4E0C463168B7
:10319000054611B900F0A4FB30602146284600F036
:1031A0009FFB431C03D14FF0FF34204670BDC41C6D
:1031B00024F00304A042F8D0211A284600F090FB26
:1031C0000130F2D1EFE700BF400300202DE9F843C2
:1031D000CD1C25F0030508350C2D38BF0C25002D1E
:1031E000064601DBA94204D90C2333600020BDE868
:1031F000F883DFF8D48000F069F8D8F800301C4676
:1032000044BB29463046FFF7BFFF431C044658D154
:10321000D8F800402746002F43D1002C4BD023681C
:103220003946304604EB030900F05AFB814542D190
:1032300021686D1A29463046FFF7A6FF01303AD0C3
:1032400023682B442360D8F800305A6862BBC8F862
:1032500000700FE02268521B20D40B2A17D9611985
:10326000A342256018BF5960636808BFC8F8001002
:1032700062514B60304600F02FF804F10B00231D23
:1032800020F00700C21A1CBF1B1AA350AFE76268E8
:10329000A3420CBFC8F800205A60EBE723466468DD
:1032A000AEE73C467F68B6E71A465B68A342FBD1AF
:1032B00000235360DEE70C233360304600F00CF847
:1032C00094E70560D6E700BF440300200148FFF7FC
:1032D0000FBF00BF3C0300200148FFF70ABF00BF3B
:1032E0003C0300202DE9F0478E681F46BE420B6864
:1032F00082460C4690462DD8B1F90C2012F4906FFE
:1033000026D06569096905EB4505A3EB010905EBC5
:10331000D5757B1C4B446D109D4238BF1D4653052F
:1033200027D52946FFF752FF064660B321694A4672
:1033300000F0E6FAA38923F4906343F08003A381AD
:10334000266165614E44A5EB09052660A5603E46F1
:10335000BE4200D93E4620683246414600F0A6FAF9
:10336000A3689B1BA3602368334423600020BDE84F
:10337000F0872A4600F0D2FA06460028E0D12169FB
:103380005046FFF7B7FE0C23CAF80030A38943F07C
:103390004003A3814FF0FF30E9E700002DE9F04F33
:1033A00098468B891B069DB007460D46144610D5DE
:1033B0000B6973B94021FFF709FF2860286130B914
:1033C0000C233B604FF0FF301DB0BDE8F08F402371
:1033D0006B610023099320238DF82930CDF80C80F0
:1033E0003023DFF89C818DF82A304FF00109234605
:1033F0009A4613F8012B0AB1252AF9D1BAEB040B2E
:103400000BD05B46224629463846FFF76BFF01305A
:1034100000F0A780099A5A4409929AF80030002BCC
:1034200000F09F8000234FF0FF32CDE905230AF121
:10343000010A049307938DF853301A9354460522DA
:1034400014F8011B4E48FCF7D3FE049AD8B9D006F5
:1034500044BF20238DF85330110744BF2B238DF830
:1034600053309AF800302A2B15D0079A5446002082
:103470004FF00A0C214611F8013B303B092B4BD988
:10348000B0B1079214E0A0EB080309FA03F3134369
:103490000493A246D2E7039B191D1B680391002BDE
:1034A000BBBF5B4242F0020207930793B8BF04928E
:1034B00023782E2B0AD163782A2B32D1039B1A1D35
:1034C0001B68039243EAE37302340593DFF8C0A05C
:1034D000217803225046FCF78BFE38B1049BA0EB09
:1034E0000A004022824013430134049314F8011B64
:1034F00024488DF828100622FCF77AFE002836D0E2
:10350000214B1BBB039B073323F0070308330393B3
:10351000099B334409936AE70CFB02320C460120F5
:10352000A8E700230134059319464FF00A0C204602
:1035300010F8012B303A092A03D9002BC6D0059187
:10354000C4E70CFB012104460123F0E703AB009321
:103550002A460E4B04A93846AFF30080421C0646AB
:10356000D6D1AB895B063FF52DAF09982CE703ABAD
:1035700000932A46054B04A9384600F079F8EDE798
:103580007C3A0008863A000800000000E532000896
:10359000823A00082DE9F047164698468A680B697A
:1035A000DDF820909342B8BF1346336091F8432072
:1035B00007460C460AB1013333602368990642BFBF
:1035C000336802333360256815F0060506D104F12F
:1035D000190AE36832689B1AAB4226DC94F8433040
:1035E0002268003B18BF012392062BD404F143024A
:1035F00041463846C84701301ED02368226903F08F
:103600000603042B02BFE5683368ED1AA3680CBFFC
:1036100025EAE57500259342C4BF9B1AED180026E4
:103620001A34B5421AD1002008E00123524641461F
:103630003846C847013003D14FF0FF30BDE8F0876E
:103640000135C6E7E1185A1C302081F843002244B6
:1036500094F8451082F843100233C7E7012322464D
:1036600041463846C8470130E6D00136D9E7000068
:103670002DE9FF470F7E0C9E782F914680460C4621
:103680009A4601F1430207D8622F0AD8002F00F0B2
:10369000D180582F00F0B88004F1420684F84270BF
:1036A0003AE0A7F16303152BF6D801A151F823F0F6
:1036B000093700081D3700089936000899360008B8
:1036C00099360008993600081D3700089936000819
:1036D0009936000899360008993600081B3800080A
:1036E00047370008D5370008993600089936000892
:1036F0003D38000899360008473700089936000819
:1037000099360008DD37000833681A1D1B683260DF
:1037100004F1420684F8423001239CE033682068BB
:10372000191D3160060601D51D6803E04506FBD56D
:10373000B3F90050002D03DA2D236D4284F8433095
:1037400058480A2311E021683368080653F8045BDF
:1037500002D4490648BFADB26F2F5248336014BF40
:103760000A230823002184F843106668A660002E0F
:1037700005DB21682E4321F0040121604BD0164661
:10378000B5FBF3F103FB1157C75D06F8017D2F462A
:10379000BB420D46F4D9082B0BD12368DF0708D5AF
:1037A000236961689942DEBF302306F8013C06F1C7
:1037B000FF36921B2261CDF800A04B4603AA21469A
:1037C0004046FFF7E7FE01304AD14FF0FF3004B02A
:1037D000BDE8F087236843F0200323603248782750
:1037E00084F84570236831681F0651F8045B02D4E1
:1037F0005F0648BFADB23160D90744BF43F0200334
:1038000023601DB11023ADE72648E9E7236823F0C4
:1038100020032360F6E71646BDE733682568616933
:10382000181D30602E061B6801D5196002E068067D
:10383000FBD51980002323611646BCE733681A1DA7
:1038400032601E68626800213046FCF7D1FC08B186
:10385000801B606063682361002384F84330AAE71B
:103860002369324649464046D0470130ADD02368EF
:103870009B0713D4E068039B9842B8BF1846A6E79D
:103880000123324649464046D04701309DD001359C
:10389000E36803995B1AAB42F2DCEBE7002504F125
:1038A0001906F5E78D3A00089E3A0008884210B5DF
:1038B00001EB020402D98442234607D8431EA142E9
:1038C00008D011F8012B03F8012FF8E70244014654
:1038D0008A4200D110BD13F8014D02F8014DF7E7FF
:1038E00038B5064D0023044608462B60FDF792F8D4
:1038F000431C02D12B6803B1236038BD380300207C
:103900000A44914200F1FF3300D1704710B511F81D
:10391000014B03F8014F9142F9D110BD2DE9F0415F
:10392000074614460D4621B9BDE8F0411146FFF7A0
:103930004DBC2AB9FFF7DEFB25462846BDE8F081DD
:1039400000F01AF88442064602D8B4EB500FF4D8BF
:1039500021463846FFF73AFC804608B94546ECE771
:10396000B4422246294628BF3246FFF7C9FF2946FE
:103970003846FFF7BFFBF1E751F8043C181F002B56
:10398000BCBF0B58C0187047F8B500BFF8BC08BCE6
:103990009E467047F8B500BFF8BC08BC9E4670470D
:1039A00025730D0A000000005258204275666665B6
:1039B00072204F766572666C6F77210D0A000000E9
:1039C000415445300000000041542B434D45453DD6
:1039D0003200000041542B4350494E3F000000008C
:1039E0004F4B0000454B4F204D6F6465204F66667E
:1039F000210D0A00434D4545204D6F6465204F6EF3
:103A0000210D0A0053696D2043617264206973209F
:103A10004F4B210D0A0000004552524F520000004A
:103A2000454B4F5F30204D6F6465206973204661C0
:103A3000756C7421203A2000434D4545204D6F643C
:103A400065206973204661756C7421203A2000005E
:103A50004350494E206973204661756C7421203AA9
:103A6000200000000000000000000000010203042C
:103A7000060708090000000001020304232D302B73
:103A80002000686C4C00656667454647003031325F
:103A900033343536373839414243444546003031B6
:103AA0003233343536373839616263646566000015
:083AB00030C7FF7F0100000098
:043AB800C50100083C
:043ABC00A10100085C
:103AC0000024F4001000000001000000100000209D
:103AD000000000000002002068020020D002002048
:103AE00000000000000000000000000000000000D6
:103AF00000000000000000000000000000000000C6
:103B000000000000000000000000000000000000B5
:0C3B1000000000000000000000000000A9
:0400000508000AA540
:00000001FF
